:020000040000FA
:100000000C9463000C94EC060C94C5060C948B00C5
:100010000C948B000C948B000C9413070C94F90532
:100020000C948B000C948B000C948B000C948B0024
:100030000C948B000C948B000C948B000C948B0014
:100040000C947B060C948B000C948B000C948B000E
:100050000C948B000C948B000C948B000C948B00F4
:100060000C942A070C948B00000000002400270049
:100070002A000000000023002600290000000008DC
:10008000000201000003040700000000000000005F
:10009000010204081020408001020408102001021F
:1000A0000408102000000000250028002B00040494
:1000B0000404040404040202020202020303030310
:1000C00003030200490811241FBECFEFD8E0DEBFB2
:1000D000CDBF11E0A0E0B1E0EEEEF9E102C0059085
:1000E0000D92A232B107D9F722E0A2E2B1E001C03D
:1000F0001D92AE31B207E1F710E0C3E6D0E004C0D4
:100100002197FE010E94EF0CC236D107C9F70E9469
:1001100066080C94F50C0C94000008950895089559
:100120000895833081F028F4813099F08230A9F06D
:1001300008958730A9F08830C9F08430B1F48091F7
:1001400080008F7D03C0809180008F778093800036
:10015000089584B58F7784BD089584B58F7DFBCFD6
:100160008091B0008F778093B00008958091B000A7
:100170008F7DF9CFCF93DF93282F30E0F901E4583A
:10018000FF4F8491F901E057FF4FD491F901E255F7
:10019000FF4FC491CC23A1F081110E949100EC2F5C
:1001A000F0E0EE0FFF1FEE58FF4FA591B491EC91D8
:1001B000ED2381E090E009F480E0DF91CF91089594
:1001C00080E090E0FACF1F93CF93DF93282F30E0A9
:1001D000F901E458FF4F8491F901E057FF4FD491A2
:1001E000F901E255FF4FC491CC23A9F0162F8111DC
:1001F0000E949100EC2FF0E0EE0FFF1FEC55FF4F37
:10020000A591B4918FB7F894EC91111108C0D095D5
:10021000DE23DC938FBFDF91CF911F910895DE2BFA
:10022000F8CFCF93DF9390E0FC01E057FF4F24918C
:1002300082559F4FFC0184918823D1F090E0880F74
:10024000991FFC01E859FF4FA591B491FC01EC55B1
:10025000FF4FC591D491623071F49FB7F8943C91EF
:10026000822F809583238C93E8812E2B28839FBF38
:10027000DF91CF9108958FB7F894EC912E2B2C93AA
:100280008FBFF6CFCF9380910401803121F08F3F53
:1002900061F1CF910895E2ECF0E0C491C7FDF9CF90
:1002A00061E080E10E941101CC2309F48CC0C230CE
:1002B00009F0A1C08091B100887F83608093B10074
:1002C0008CE78093B30088EC90E0A0E0B0E08093EE
:1002D000FB019093FC01A093FD01B093FE0180917E
:1002E0007000826080937000D4CF80E1809304011D
:1002F000E2ECF0E0C491CF3F61F2C13021F150F067
:10030000C23009F43EC0C7FDC4CF61E080E10E9465
:100310001101CDCF14BC15BC84B5826084BD85B5F8
:10032000816085BDEEEBF0E0E491F0E0EE0FFF1FA1
:10033000EC55FF4F85919491E0EAF0E0E491E09371
:10034000FA01C0E0ADCF1092800010928100809140
:10035000810088608093810080918100816080931A
:100360008100EEEBF0E0E491F0E0EE0FFF1FEC55C2
:10037000FF4F85919491E0EAF0E0E491E093F90178
:100380008FCF1092B0001092B1008091B0008260C7
:100390008093B0008091B10081608093B100EEEB5A
:1003A000F0E0E491F0E0EE0FFF1FEC55FF4F859178
:1003B00094919093F8018093F701E0EAF0E0E491E2
:1003C000E093F6016DCF85B5887F836085BD8DE3B1
:1003D00087BD88EC90E0A0E0B0E0809303029093AA
:1003E0000402A0930502B093060280916E00826021
:1003F00080936E004ECFC130F1F480918100887FF0
:100400008160809381008FE99FE0909389008093C1
:10041000880088EC90E0A0E0B0E08093FF0190932A
:100420000002A0930102B093020280916F008260EB
:1004300080936F002ECFC23021F0C1112ACF8FE9F7
:10044000C7CF8FE93ECF3FB7F8948091D701909105
:10045000D801A091D901B091DA0126B5A89B05C0B9
:100460002F3F19F00196A11DB11D3FBFBA2FA92F33
:10047000982F8827BC01CD01620F711D811D911D30
:1004800043E0660F771F881F991F4A95D1F708959B
:100490002FB7F8946091D3017091D4018091D50168
:1004A0009091D6012FBF08954115510529F4EAE72F
:1004B000F0E080818F7780836A307105B9F0CB01DD
:1004C000880F991F880F991F807267706860682B6A
:1004D00088E10FB6F894A895809360000FBE6093F2
:1004E0006000E0E6F0E0808180648083232BD9F413
:1004F00083B7817F846083BFF89483B7816083BFB3
:1005000085B7806685BF8F7D85BF7894889583B7D2
:100510008E7F83BF7894452B29F4EAE7F0E0808151
:1005200080688083089583B7817F846083BFF89457
:1005300083B7816083BF7894889583B78E7F83BFAC
:100540007894E9CF20918801260F3327331F213279
:100550003105ECF42091AC01FC0190E080E0243006
:1005600069F082E00895A09188012191AC01485979
:100570005E4FA40FB52FB11D2C930196861798F3EB
:1005800080918801680F6093880180E0089581E080
:1005900008951092AC0181E08093AE011092AD01FC
:1005A00061E082E10E94E30061E083E10E94E300F8
:1005B000E9EBF0E080818E7F808380818D7F808376
:1005C00080E28093B80085E48093BC000895CF93C7
:1005D000DF9391E0909367018823B9F0C091B80050
:1005E000D091BA008091BC008A7B8093BC0060E00F
:1005F00082E10E94E30060E083E10E94E3000E9448
:10060000C902D093BA00C093B800DF91CF9108958A
:100610000895E091E0018091DF01E81730F4F0E007
:10062000EE5BFE4F808190E008958FEF9FEF08957D
:100630009091E0018091DF012FEF3FEF981748F490
:10064000E92FF0E0EE5BFE4F208130E09F5F90935A
:10065000E001C90108958091DF019091E001891BBB
:10066000990B0895CF92DF92EF92FF920F931F9311
:10067000CF93DF937C01CB018A012091E4012223F7
:1006800089F0EB016B01C40ED51ECC15DD0569F0B8
:100690006991D701ED91FC910190F081E02DC701A6
:1006A0000995F3CF642F0E94A202C801DF91CF9178
:1006B0001F910F91FF90EF90DF90CF900895CF930F
:1006C000DF931F92CDB7DEB769832091E401222327
:1006D000F9F02091E101203258F021E030E0FC01F6
:1006E0003383228390E080E00F90DF91CF910895D3
:1006F0008091E201E82FF0E0EE5DFE4F998190835A
:100700008F5F8093E2018093E10181E090E0ECCF84
:1007100061E0CE0101960E94A202F7CFCF92DF9254
:10072000EF92FF920F931F93CF93DF93D091E1014C
:1007300081E0D13208F09CC0C091E3010E94230205
:100740006B017C018091AC0181116CC082E08093CF
:10075000AC0181E08093AE018FEF8093AB011092EA
:10076000D001D093CF01A2E2B1E0EFEAF1E080E066
:10077000D8138DC01092D1018091D101CC0FC82B1C
:10078000C093D1018091AD01813009F084C01092F5
:10079000AD010E9423026B017C018091D101809305
:1007A000BB008091630190916401A0916501B091BB
:1007B0006601892B8A2B8B2BA1F00E9423020091CA
:1007C00063011091640120916501309166016C19FB
:1007D0007D098E099F09061717072807390708F4AE
:1007E00042C08091BC0083FDD8CF85EC8093BC00D3
:1007F0000E9423026B017C018091AC01823009F4DC
:100800004CC08091AB018F3F09F469C08091AB016E
:10081000803209F466C08091AB01803309F463C073
:1008200084E026C08091630190916401A0916501EC
:10083000B0916601892B8A2B8B2B09F483CF0E9400
:1008400023020091630110916401209165013091B0
:1008500066016C197D098E099F090617170728077D
:10086000390708F06FCF809162010E94E70285E0AE
:100870001092E2011092E1011092E401DF91CF9118
:100880001F910F91FF90EF90DF90CF9008959D9171
:1008900091938F5F6DCF85EEA9CF80916301909189
:1008A0006401A0916501B0916601892B8A2B8B2B85
:1008B00009F4A2CF0E942302009163011091640108
:1008C00020916501309166016C197D098E099F099F
:1008D000061717072807390708F08ECFC4CF80E026
:1008E000C7CF82E0C5CF83E0C3CF90E080E008951A
:1008F000CF93C62F91E09093E40191E59093E301AB
:100900001092E2011092E101682F87E092E00E94CC
:100910005F036C2F87E092E00E945F0387E092E024
:10092000CF910C948E03982F92959F708F702AE030
:10093000929F800D1124089590E08A3018F09F5FF7
:100940008A50FBCF9295907F892B08951F93CF9368
:10095000DF93C5E0D1E0199161E0812F0E94110180
:1009600060E0812F0E94E30081E0C031D80799F751
:10097000DF91CF911F910895DC01ED91FC910190E1
:10098000F081E02D09948F929F92AF92BF92CF9207
:10099000DF92EF92FF921F93CF93DF93D62F142F06
:1009A0000E9423026B017C018091AC01811166C021
:1009B000C12F81E08093AC018093AE019FEF9093B3
:1009C000AB011092D001910F9093CF018093D10190
:1009D0008091D101DD0FD82BD093D1018091AD0151
:1009E000813009F082C01092AD010E9423026B0198
:1009F0007C018091D1018093BB0080916301909133
:100A00006401A0916501B0916601892B8A2B8B2B23
:100A1000A1F00E9423028090630190906401A09055
:100A20006501B09066016C197D098E099F098616D3
:100A30009706A806B90608F442C08091BC0083FD61
:100A4000D8CF85EC8093BC000E9423026B017C010F
:100A50008091AC01813009F44AC08091D0018117A6
:100A600010F4C091D001AFEAB1E0E2E4F1E080E03F
:100A70008C1751F19D9191938F5FFACF8091630113
:100A800090916401A0916501B0916601892B8A2B38
:100A90008B2B09F489CF0E942302809063019090F0
:100AA0006401A0906501B09066016C197D098E0902
:100AB0009F0986169706A806B90608F075CF80919B
:100AC00062010E94E702C0E01092E001C093DF01E2
:100AD0008C2FDF91CF911F91FF90EF90DF90CF90FF
:100AE000BF90AF909F908F90089585EEABCF80918F
:100AF000630190916401A0916501B0916601892B19
:100B00008A2B8B2B09F4A4CF0E94230280906301CF
:100B100090906401A0906501B09066016C197D0908
:100B20008E099F0986169706A806B90608F090CF89
:100B3000C6CF91E09093E40191E59093E301109288
:100B4000E2011092E101682F87E092E00E945F03CA
:100B500087E092E00E948E0341E050E061E570E0A2
:100B600087E092E00E94C30480E02091DF01909131
:100B7000E001291729F087E092E00E941803F5CFE1
:100B8000089585ED8093BC0080916301909164018C
:100B9000A0916501B09166010796A11DB11D23E0EA
:100BA000B695A795979587952A95D1F72091BC0082
:100BB00024FD03C01092AC0108954091630150914F
:100BC00064016091650170916601452B462B472BAE
:100BD00069F30097A105B10541F02AE12A95F1F7E3
:100BE00000C00197A109B109E1CF809162010C9485
:100BF000E7021F920F920FB60F9211242F933F938B
:100C00004F935F936F937F938F939F93AF93BF9314
:100C1000EF93FF938091FB019091FC01A091FD0166
:100C2000B091FE01892B8A2B8B2BD1F19091F6018B
:100C3000E091F701F091F80180818927808380910C
:100C4000FB019091FC01A091FD01B091FE011816ED
:100C500019061A061B069CF48091FB019091FC0179
:100C6000A091FD01B091FE010197A109B109809306
:100C7000FB019093FC01A093FD01B093FE01FF9155
:100C8000EF91BF91AF919F918F917F916F915F9104
:100C90004F913F912F910F900FBE0F901F9018957D
:100CA00080910401E2ECF0E0E4919FEF9093040165
:100CB000E13051F030F0E23069F060E00E94E30092
:100CC000DECF10926E00F9CF90916F009D7F9093D0
:100CD0006F00F3CF909170009D7F9093700091E032
:100CE0009093B0009091B100987F94609093B10080
:100CF0001092B300E2CF1F920F920FB60F92112401
:100D00002F933F938F939F93AF93BF938091D30182
:100D10009091D401A091D501B091D6013091D2012A
:100D200026E0230F2D3758F50296A11DB11D209303
:100D3000D2018093D3019093D401A093D501B093B5
:100D4000D6018091D7019091D801A091D901B0919D
:100D5000DA010196A11DB11D8093D7019093D801AE
:100D6000A093D901B093DA01BF91AF919F918F9178
:100D70003F912F910F900FBE0F901F90189529E86B
:100D8000230F0396A11DB11DD2CF1F920F920FB654
:100D90000F9211242F933F934F935F936F937F9301
:100DA0008F939F93AF93BF93EF93FF93E0910201D3
:100DB000F09103010995FF91EF91BF91AF919F9140
:100DC0008F917F916F915F914F913F912F910F90F4
:100DD0000FBE0F901F9018951F920F920FB60F9293
:100DE00011242F933F934F935F936F937F938F9330
:100DF0009F93AF93BF93EF93FF93E0910001F09126
:100E000001010995FF91EF91BF91AF919F918F9152
:100E10007F916F915F914F913F912F910F900FBEF6
:100E20000F901F9018951F920F920FB60F921124DA
:100E30008F930FB6F894A895809160008861809395
:100E40006000109260000FBE8F910F900FBE0F9048
:100E50001F9018951F920F920FB60F9211242F9387
:100E60003F934F935F936F937F938F939F93AF9332
:100E7000BF93EF93FF938091B900887F803609F488
:100E80004AC0F0F5883209F4A7C018F5803109F49A
:100E90009BC0B8F4882309F4F9C0883009F494C0E1
:100EA000FF91EF91BF91AF919F918F917F916F9142
:100EB0005F914F913F912F910F900FBE0F901F9018
:100EC0001895883109F488C0803251F78093AB01BE
:100ED00014C0803409F49DC040F48033B9F38833E2
:100EE000F9F68093AB0185ECB0C0803509F485C07C
:100EF000883509F496C0883499F60E94C105D0CF90
:100F0000883909F48CC038F5883729F050F48836D0
:100F100011F0803729F683E08093AC011092AA018A
:100F200057C0883809F47BC0803919F0803809F03F
:100F3000B7CF8091AA01803208F071C0E091AA0178
:100F400081E08E0F8093AA018091BB00F0E0E6570C
:100F5000FE4F80833DC0803B39F0E0F4803A09F4D5
:100F600079C0883A09F09CCF84E08093AC0110925C
:100F7000890110928801E091DD01F091DE0109956F
:100F80008091880181110FC081E0809388011092C7
:100F9000680109C0803C09F4A6CF883C09F4A3CFBE
:100FA000883B09F07DCFE091890181E08E0F80932D
:100FB0008901F0E0E859FE4F80818093BB00909159
:100FC00089018091880129C08091D1018093BB0063
:100FD00085EC8093BC0064CF9091D0018091CF01CB
:100FE000981758F5E091D00181E08E0F8093D001E1
:100FF000F0E0E155FE4F8081E9CFE091D00181E042
:101000008E0F8093D0018091BB00F0E0E155FE4F40
:1010100080839091D0018091CF019817C8F285E824
:10102000D8CFE091D00181E08E0F8093D0018091E4
:10103000BB00F0E0E155FE4F80838091AE0181114D
:101040005CCF81E08093AD0184EA8093BC00109274
:10105000AC0126CF85EC8093BC001092AC0180914E
:10106000AA01803230F4E091AA01F0E0E657FE4F89
:1010700010826091AA0170E0E091DB01F091DC0147
:101080008AE891E009951092AA010ACF1092AB016B
:1010900034CFE7E0F2E01382128288EE93E0A0E022
:1010A000B0E084839583A683B78384E191E0918344
:1010B0008083A3E1B2E081E590E01A969C938E9341
:1010C00019971896FC93EE9317970895789484B522
:1010D000826084BD84B5816084BD85B5826085BD34
:1010E00085B5816085BD80916E00816080936E00C2
:1010F00010928100809181008260809381008091B4
:101100008100816080938100809180008160809364
:1011100080008091B10084608093B1008091B00024
:1011200081608093B00080917A00846080937A001F
:1011300080917A00826080937A0080917A008E7F1D
:1011400080937A0080917A00806880937A00109270
:10115000C1001092E0011092DF011092E2011092A2
:10116000E1010E94C9028FE890E09093DE01809334
:10117000DD0180E990E09093DC018093DB018091B8
:101180001A0290911B0220911C0231E03093E4017D
:101190002093E30170E060E00E94BC0470E060E036
:1011A00080911A0290911B020E94BC0470E060E0E2
:1011B00080911A0290911B020E94BC0480911A0235
:1011C00090911B020E948E030E94A60461E082E0BF
:1011D0000E94E30061E08EE00E94E30062E082E0B2
:1011E0000E94110162E08EE00E94110161E080E145
:1011F0000E94110160E080E10E94E3000E94480229
:1012000090E080E00E94D90C813009F077C0809393
:10121000F101DAE020E0622E20E0722E3DE8C32EDC
:1012200030E0D32E4EE8A42E40E0B42EC1E08091F1
:101230001A0290911B0220911C02C093E40120939A
:10124000E3011092E2011092E10165E070E00E947A
:10125000BC0480911A0290911B020E948E0360913F
:101260001C0270911D0244E050E080911A0290919E
:101270001B020E94C30400E0F12C312C10E080918D
:101280001A0290911B02DC01ED91FC910084F18522
:10129000E02D0995A0911A02B0911B02892B89F1CA
:1012A000ED91FC9111970284F385E02DCD01099514
:1012B000182F80911A0290911B02DC01ED91FC9194
:1012C0000284F385E02D0995382E80911A029091C1
:1012D0001B02DC01ED91FC910284F385E02D099560
:1012E000F82E80911A0290911B02DC01ED91FC9185
:1012F0000284F385E02D0995082FC1CF1092F101EA
:1013000088CF812F829583701F70512E8D9F500C36
:101310001124E32DE7703E2EF4FA992790F98F2DD2
:101320008F70882E9D9F800C1124802F82958F7046
:101330000F708D9F000D112410E0F7FE58C0045966
:10134000184F80911C02C093E4018093E301109236
:10135000E2011092E10162E070E0CD010E94BC0464
:1013600080911A0290911B020E948E0360911C02D0
:1013700070911D0243E050E080911A0290911B028F
:101380000E94C304912CF12CE12C80911A029091BF
:101390001B02DC01ED91FC910084F185E02D0995A3
:1013A000892B41F180911A0290911B02DC01ED9191
:1013B000FC910284F385E02D0995E82E80911A02B4
:1013C00090911B02DC01ED91FC910284F385E02DEC
:1013D0000995F82E80911A0290911B02DC01ED9183
:1013E000FC910284F385E02D0995982ECECF005311
:1013F000184FA7CF8F2D82958770BF2DBF70FB2E02
:101400008D9FF00C1124892D82958370E92DEF704A
:101410009E2E8D9F900C11244090F501411017C015
:10142000E091F401EA3098F4F0E0E75EF54F0C94B7
:10143000EF0C230A550A5A0A600A660A6C0A770AF0
:10144000820A8D0A980AF092F3019092F20182E0EA
:101450000E94BA00892B09F000C1C093F0010E94DC
:1014600048020091EC011091ED012091EE013091C4
:10147000EF01601B710B820B930B693B7B40810575
:10148000910508F46CC01092F0018091F101811176
:101490000E944201411057C0C093F5011092EB0128
:1014A0009092F3011092F20150C00093F301C093A7
:1014B000F201CDCF8092F301F2E0F093F201C7CFB9
:1014C0005092F30123E02093F201C1CF3092F30157
:1014D00084E08093F201BBCF89E00E9499050E94CD
:1014E00093048093F30195E09093F201B0CF8AE0EA
:1014F0000E9499050E9493048093F301A6E0A093B3
:10150000F201A5CF8CE00E9499050E94930480937C
:10151000F301B7E0B093F2019ACF8DE00E949905F4
:101520000E9493048093F301E8E0E093F2018FCFEF
:101530008091F101882321F0C093F301F9E0BDCF40
:101540001092F301FBCF1092F5010E9448026093C4
:10155000EC017093ED018093EE019093EF018EE02A
:101560000E94BA00892B09F030C1C093EA010E94A1
:1015700048020091E6011091E7012091E8013091C5
:10158000E901601B710B820B930B693B7B4081056A
:10159000910510F11092EA018091F10181110E94F0
:1015A00042010E94A604D0920101C09200018091E4
:1015B00069008C7F80936900E89A30E020E050E079
:1015C00040E06AE070E085EE91E00E945402E89805
:1015D000B0920101A0920001E090F30195E0892E04
:1015E00091E0992E10E000E0F12CD4018D914D0195
:1015F0009701002E02C0359527950A94E2F761E025
:1016000020FF60E00E94E3000F5F1F4F06301105CE
:1016100061F7E090F2018BE0882E81E0982E10E0D7
:1016200000E0F12CF40181914F019701002E02C0DE
:10163000359527950A94E2F761E020FF60E00E946B
:10164000E3000F5F1F4F0530110561F7611471044E
:1016500009F4EDCD0E940000E9CD8091F0018823CE
:1016600009F473CF82E00E94BA00019709F06DCFB0
:101670001092F0012090F10121100E9442014110CE
:101680000BC08091F4018F5F8A3018F48093F401CD
:101690005CCF1092F40159CF8091EB018F5F8C30B9
:1016A000C0F48093EB01E091EB01EC3008F04DCFFA
:1016B000F0E0E35AF44F0C94EF0C500A6C0B710BF2
:1016C000800B860B8C0B920B980BAA0BBC0BCC0BD4
:1016D000DC0B1092EB01E7CFF092F301C093F20123
:1016E00034CF8E2D829587709E2D9F70E92E8D9F11
:1016F000E00C1124E092F301A2E0A093F20125CFC7
:101700000093F301B3E0B093F2011FCF8092F30195
:10171000E4E0E093F20119CF5092F301F5E0F09389
:10172000F20113CF3092F30126E02093F2010DCFA6
:1017300089E00E94990587FF07C08FEF8093F3012E
:1017400087E08093F20101CF89E00E9499050E9411
:101750009304F4CF8AE00E94990587FF07C08FEFBA
:101760008093F30198E09093F201EFCE8AE00E941B
:1017700099050E949304F4CF8BE00E94990587FF9E
:1017800005C08FEF8093F301A9E0B7CF8BE00E94F3
:1017900099050E949304F6CF8CE00E94990587FF7B
:1017A00005C08FEF8093F301BAE0ADCF8CE00E94CB
:1017B00099050E949304F6CF222021F0C093F301F3
:1017C0008BE0BFCF1092F301FBCF8091EA01811132
:1017D0000BC00E9448026093E6017093E70180937A
:1017E000E8019093E901F8CE8EE00E94BA000197DB
:1017F00081F71092EA018091F10181110E9442016A
:101800008091F501882329F38091F301E091EB01A8
:10181000EC30F8F6F0E0E15FF34F0C94EF0C1B0CAA
:101820002C0C3B0C4A0C590C680C770C860C950C54
:10183000A40CB30CBF0C8F5F883158F48093F30174
:101840008091F3010E949C04682F84E00E94780438
:10185000C0CF1092F301F4CF8F5F8C3348F48093A4
:10186000F3018091F3010E949C04682F83E0EECF86
:101870001092F301F6CF8F5F8C3348F48093F3011D
:101880008091F3010E949C04682F82E0DFCF1092C8
:10189000F301F6CF8F5F8D3348F48093F30180918D
:1018A000F3010E949C04682F88E0D0CF1092F301CE
:1018B000F6CF8F5F8D3048F48093F3018091F30170
:1018C0000E949C04682F87E0C1CFC093F301F6CF3C
:1018D0008F5F8F3148F48093F3018091F3010E9470
:1018E0009C04682F85E0B2CF1092F301F6CF8F5F92
:1018F000873048F48093F3018091F3010E949C04A7
:10190000682F86E0A3CF1092F301F6CF8F5F80930C
:10191000F3018C3330F08FEF8093F30160E889E0BE
:1019200095CF0E949C04682FFACF8F5F8093F301BC
:10193000883130F08FEF8093F30160E88AE086CF42
:101940000E949C04682FFACF8F5F8093F30180324E
:1019500030F08FEF8093F30160E88BE077CF0E9447
:101960009C04682FFACF61E0680F6093F301673041
:1019700020F08FEF8093F30160E88CE067CF811156
:1019800013C0C093F301C093F1011091F30190E0F3
:1019900080E00E94D90C181709F41BCF612F90E04A
:1019A00080E00E94E10C15CF1092F3011092F1013A
:1019B000ECCFF999FECF92BD81BDF89A992780B5F9
:1019C0000895262FF999FECF1FBA92BD81BD20BD83
:1019D0000FB6F894FA9AF99A0FBE01960895EE0F91
:1019E000FF1F0590F491E02D0994F894FFCF8E002D
:1019F0008E00FF0405060708090A0B0C0D0F0000F6
:101A000000005F033203750408032B031803090366
:107800000C94343C0C94513C0C94513C0C94513CE1
:107810000C94513C0C94513C0C94513C0C94513CB4
:107820000C94513C0C94513C0C94513C0C94513CA4
:107830000C94513C0C94513C0C94513C0C94513C94
:107840000C94513C0C94513C0C94513C0C94513C84
:107850000C94513C0C94513C0C94513C0C94513C74
:107860000C94513C0C94513C11241FBECFEFD8E036
:10787000DEBFCDBF11E0A0E0B1E0EAE8FFE702C063
:1078800005900D92A230B107D9F712E0A2E0B1E065
:1078900001C01D92AD30B107E1F70E942D3D0C945F
:1078A000C33F0C94003C982F95959595959595958B
:1078B000905D8F708A307CF0282F295A8091C0000B
:1078C00085FFFCCF9093C6008091C00085FFFCCF60
:1078D0002093C6000895282F205DF0CF982F809127
:1078E000C00085FFFCCF9093C6000895EF92FF92F1
:1078F0000F931F93EE24FF2487018091C00087FD22
:1079000017C00894E11CF11C011D111D81E2E8164D
:1079100081EAF80687E0080780E0180770F3E09135
:107920000401F091050109958091C00087FFE9CF1E
:107930008091C6001F910F91FF90EF9008950E94D3
:10794000763C982F8091C00085FFFCCF9093C600B5
:1079500091362CF490330CF09053892F089597555D
:10796000892F08951F930E949F3C182F0E949F3CCF
:107970001295107F810F1F9108951F93182F882350
:1079800021F00E94763C1150E1F71F9108951F935A
:10799000182F0E94763C803249F0809103018F5F5E
:1079A000809303018530C1F01F9108958091C0003C
:1079B00085FFFCCF84E18093C6008091C00085FFE5
:1079C000FCCF1093C6008091C00085FFFCCF80E102
:1079D0008093C6001F910895E0910401F091050184
:1079E00009951F9108950E94763C803241F0809164
:1079F00003018F5F80930301853081F008958091AA
:107A0000C00085FFFCCF84E18093C6008091C00058
:107A100085FFFCCF80E18093C6000895E0910401CA
:107A2000F09105010995089548EC50E08823A1F0F4
:107A30002D9A28EE33E0FA013197F1F721503040CA
:107A4000D1F72D9828EE33E0FA013197F1F7215064
:107A50003040D1F7815061F708953F924F925F9285
:107A60006F927F928F929F92AF92BF92CF92DF924E
:107A7000EF92FF920F931F93CF93DF93000082E06A
:107A80008093C00080E18093C4001092C50088E11B
:107A90008093C10086E08093C2005098589A259A3E
:107AA00081E00E94143D24E1F22E9EE1E92E85E959
:107AB000D82E0FE0C02E10E1B12EAA24A394B1E479
:107AC0009B2EA6E58A2EF2E57F2EE0E26E2E79E46B
:107AD000572E63E5462E50E5352E0E94763C8033C6
:107AE000B1F18133B9F1803409F46FC0813409F404
:107AF00076C0823409F485C0853409F488C08035A5
:107B000031F1823521F1813511F1853509F485C0D6
:107B1000863509F48DC0843609F496C0843709F49B
:107B200003C1853709F472C1863709F466C08091B4
:107B300003018F5F80930301853079F6E0910401A2
:107B4000F091050109950E94763C803351F60E9420
:107B5000F33CC3CF0E94763C803249F78091C0004D
:107B600085FFFCCFF092C6008091C00085FFFCCF5E
:107B70009092C6008091C00085FFFCCF8092C60025
:107B80008091C00085FFFCCF7092C6008091C0003C
:107B900085FFFCCF6092C6008091C00085FFFCCFBE
:107BA0005092C6008091C00085FFFCCF4092C60075
:107BB0008091C00085FFFCCF3092C6008091C0004C
:107BC00085FFFCCFB092C60088CF0E94763C8638F5
:107BD00008F4BDCF0E94763C0E94F33C7ECF0E9409
:107BE000763C803809F49CC0813809F40BC1823896
:107BF00009F430C1883909F48FC080E00E94C73C85
:107C00006CCF84E10E94BD3C0E94F33C66CF85E0CE
:107C10000E94BD3C0E94F33C60CF0E94763C809362
:107C200006010E94763C809307010E94F33C55CFE9
:107C30000E94763C803309F411C183E00E94BD3C70
:107C400080E00E94C73C49CF0E94763C80930902A5
:107C50000E94763C8093080280910C028E7F809374
:107C60000C020E94763C853409F409C18091080217
:107C700090910902892B89F000E010E00E94763C87
:107C8000F801E85FFE4F80830F5F1F4F809108026D
:107C9000909109020817190788F30E94763C8032F8
:107CA00009F045CF80910C0280FFF5C0609106017C
:107CB00070910701660F771F7093070160930601AB
:107CC000A0910802B09109021097C9F0E8E0F1E034
:107CD0009B01AD014E0F5F1FF999FECF32BD21BD53
:107CE000819180BDFA9AF99A2F5F3F4FE417F5070B
:107CF00099F76A0F7B1F70930701609306018091CB
:107D0000C00085FFFCCFF092C6008091C00085FFC7
:107D1000FCCFB092C600E1CE83E00E94C73CDDCE2E
:107D200082E00E94C73CD9CE0E94763C8093090233
:107D30000E94763C80930802809106019091070191
:107D4000880F991F90930701809306010E94763C4B
:107D5000853409F49AC080910C028E7F80930C02C6
:107D60000E94763C803209F0B8CE8091C00085FF39
:107D7000FCCFF092C600A0910802B09109021097C2
:107D8000C1F180910C02082F0170182F1695117007
:107D9000E0910601F0910701AF014F5F5F4FBA011B
:107DA00020E030E00023B1F4112339F49491809164
:107DB000C00085FFFCCF9093C6002F5F3F4FCB01E3
:107DC0000196FA012A173B0780F4BC014F5F5F4F11
:107DD000002351F3F999FECFF2BDE1BDF89A90B5B9
:107DE0008091C00085FFFCCFE6CF709307016093C0
:107DF00006018091C00085FDE5CE8091C00085FF21
:107E0000F8CFE0CE81E00E94C73C67CE0E94763C6E
:107E1000803209F08CCE8091C00085FFFCCFF092BB
:107E2000C6008091C00085FFFCCFE092C600809123
:107E3000C00085FFFCCFD092C6008091C00085FFB6
:107E4000FCCFC092C6008091C00085FFFCCFB092ED
:107E5000C60043CE80E10E94C73C3FCE0E94763CE4
:107E60000E94763C182F0E94763C112309F483C0AF
:107E7000113009F484C08FE00E94C73C2ECE80915F
:107E80000C02816080930C02F1CE80910C02816023
:107E900080930C0265CF809107018823880F880B9F
:107EA0008A2180930B028091060190910701880F2F
:107EB000991F90930701809306018091080280FF2B
:107EC00009C08091080290910902019690930902DD
:107ED00080930802F894F999FECF1127E0910601EA
:107EE000F0910701C8E0D1E0809108029091090269
:107EF000103091F40091570001700130D9F303E084
:107F000000935700E8950091570001700130D9F3B4
:107F100001E100935700E8950990199000915700EE
:107F200001700130D9F301E000935700E8951395F3
:107F3000103498F011270091570001700130D9F3E7
:107F400005E000935700E89500915700017001305B
:107F5000D9F301E100935700E8953296029709F0B2
:107F6000C7CF103011F00296E5CF11248091C000E8
:107F700085FFC5CEC8CE8EE10E94C73CAECD85E957
:0C7F80000E94C73CAACDF894FFCF8000FF
:00000001FF
